{
  "_format": "hh-sol-artifact-1",
  "contractName": "CareTrack",
  "sourceName": "contracts/CareTrack.sol",
  "abi": [
    {
      "inputs": [],
      "stateMutability": "nonpayable",
      "type": "constructor"
    },
    {
      "anonymous": false,
      "inputs": [
        {
          "indexed": false,
          "internalType": "address",
          "name": "doctorAddress",
          "type": "address"
        },
        {
          "indexed": false,
          "internalType": "string",
          "name": "name",
          "type": "string"
        },
        {
          "indexed": false,
          "internalType": "string",
          "name": "specialization",
          "type": "string"
        }
      ],
      "name": "DoctorRegistered",
      "type": "event"
    },
    {
      "anonymous": false,
      "inputs": [
        {
          "indexed": false,
          "internalType": "address",
          "name": "patientAddress",
          "type": "address"
        },
        {
          "indexed": false,
          "internalType": "string",
          "name": "doctorName",
          "type": "string"
        },
        {
          "indexed": false,
          "internalType": "uint256",
          "name": "visitedDate",
          "type": "uint256"
        }
      ],
      "name": "RecordAdded",
      "type": "event"
    },
    {
      "inputs": [
        {
          "internalType": "address",
          "name": "_doctorAddress",
          "type": "address"
        },
        {
          "internalType": "string",
          "name": "_name",
          "type": "string"
        },
        {
          "internalType": "string",
          "name": "_specialization",
          "type": "string"
        }
      ],
      "name": "addDoctor",
      "outputs": [],
      "stateMutability": "nonpayable",
      "type": "function"
    },
    {
      "inputs": [
        {
          "internalType": "string",
          "name": "_name",
          "type": "string"
        },
        {
          "internalType": "uint16",
          "name": "_age",
          "type": "uint16"
        },
        {
          "internalType": "uint16",
          "name": "_height",
          "type": "uint16"
        },
        {
          "internalType": "uint16",
          "name": "_weight",
          "type": "uint16"
        }
      ],
      "name": "addPatient",
      "outputs": [],
      "stateMutability": "nonpayable",
      "type": "function"
    },
    {
      "inputs": [
        {
          "internalType": "address",
          "name": "_doctorAddress",
          "type": "address"
        },
        {
          "internalType": "address",
          "name": "_patientAddress",
          "type": "address"
        },
        {
          "internalType": "string",
          "name": "_diagnosis",
          "type": "string"
        },
        {
          "internalType": "string",
          "name": "_prescription",
          "type": "string"
        }
      ],
      "name": "addRecord",
      "outputs": [],
      "stateMutability": "nonpayable",
      "type": "function"
    },
    {
      "inputs": [
        {
          "internalType": "address",
          "name": "",
          "type": "address"
        }
      ],
      "name": "doctors",
      "outputs": [
        {
          "internalType": "string",
          "name": "name",
          "type": "string"
        },
        {
          "internalType": "string",
          "name": "specialization",
          "type": "string"
        },
        {
          "internalType": "uint256",
          "name": "registrationDate",
          "type": "uint256"
        }
      ],
      "stateMutability": "view",
      "type": "function"
    },
    {
      "inputs": [
        {
          "internalType": "address",
          "name": "_doctorAddress",
          "type": "address"
        }
      ],
      "name": "getDoctor",
      "outputs": [
        {
          "components": [
            {
              "internalType": "string",
              "name": "name",
              "type": "string"
            },
            {
              "internalType": "string",
              "name": "specialization",
              "type": "string"
            },
            {
              "internalType": "uint256",
              "name": "registrationDate",
              "type": "uint256"
            }
          ],
          "internalType": "struct CareTrack.Doctor",
          "name": "",
          "type": "tuple"
        }
      ],
      "stateMutability": "view",
      "type": "function"
    },
    {
      "inputs": [
        {
          "internalType": "address",
          "name": "_getPatitent",
          "type": "address"
        }
      ],
      "name": "getPatient",
      "outputs": [
        {
          "components": [
            {
              "internalType": "string",
              "name": "name",
              "type": "string"
            },
            {
              "internalType": "uint16",
              "name": "age",
              "type": "uint16"
            },
            {
              "internalType": "uint16",
              "name": "height",
              "type": "uint16"
            },
            {
              "internalType": "uint16",
              "name": "weight",
              "type": "uint16"
            }
          ],
          "internalType": "struct CareTrack.Person",
          "name": "",
          "type": "tuple"
        }
      ],
      "stateMutability": "view",
      "type": "function"
    },
    {
      "inputs": [
        {
          "internalType": "address",
          "name": "_patientAddress",
          "type": "address"
        }
      ],
      "name": "getRecords",
      "outputs": [
        {
          "components": [
            {
              "components": [
                {
                  "internalType": "string",
                  "name": "name",
                  "type": "string"
                },
                {
                  "internalType": "uint16",
                  "name": "age",
                  "type": "uint16"
                },
                {
                  "internalType": "uint16",
                  "name": "height",
                  "type": "uint16"
                },
                {
                  "internalType": "uint16",
                  "name": "weight",
                  "type": "uint16"
                }
              ],
              "internalType": "struct CareTrack.Person",
              "name": "patient",
              "type": "tuple"
            },
            {
              "internalType": "uint256",
              "name": "visitedDate",
              "type": "uint256"
            },
            {
              "components": [
                {
                  "internalType": "string",
                  "name": "name",
                  "type": "string"
                },
                {
                  "internalType": "string",
                  "name": "specialization",
                  "type": "string"
                },
                {
                  "internalType": "uint256",
                  "name": "registrationDate",
                  "type": "uint256"
                }
              ],
              "internalType": "struct CareTrack.Doctor",
              "name": "visitedDoctor",
              "type": "tuple"
            },
            {
              "internalType": "string",
              "name": "diagnosis",
              "type": "string"
            },
            {
              "internalType": "string",
              "name": "prescription",
              "type": "string"
            }
          ],
          "internalType": "struct CareTrack.Record[]",
          "name": "",
          "type": "tuple[]"
        }
      ],
      "stateMutability": "view",
      "type": "function"
    },
    {
      "inputs": [],
      "name": "owner",
      "outputs": [
        {
          "internalType": "address",
          "name": "",
          "type": "address"
        }
      ],
      "stateMutability": "view",
      "type": "function"
    },
    {
      "inputs": [
        {
          "internalType": "address",
          "name": "",
          "type": "address"
        }
      ],
      "name": "patients",
      "outputs": [
        {
          "internalType": "string",
          "name": "name",
          "type": "string"
        },
        {
          "internalType": "uint16",
          "name": "age",
          "type": "uint16"
        },
        {
          "internalType": "uint16",
          "name": "height",
          "type": "uint16"
        },
        {
          "internalType": "uint16",
          "name": "weight",
          "type": "uint16"
        }
      ],
      "stateMutability": "view",
      "type": "function"
    },
    {
      "inputs": [
        {
          "internalType": "address",
          "name": "",
          "type": "address"
        },
        {
          "internalType": "uint256",
          "name": "",
          "type": "uint256"
        }
      ],
      "name": "records",
      "outputs": [
        {
          "components": [
            {
              "internalType": "string",
              "name": "name",
              "type": "string"
            },
            {
              "internalType": "uint16",
              "name": "age",
              "type": "uint16"
            },
            {
              "internalType": "uint16",
              "name": "height",
              "type": "uint16"
            },
            {
              "internalType": "uint16",
              "name": "weight",
              "type": "uint16"
            }
          ],
          "internalType": "struct CareTrack.Person",
          "name": "patient",
          "type": "tuple"
        },
        {
          "internalType": "uint256",
          "name": "visitedDate",
          "type": "uint256"
        },
        {
          "components": [
            {
              "internalType": "string",
              "name": "name",
              "type": "string"
            },
            {
              "internalType": "string",
              "name": "specialization",
              "type": "string"
            },
            {
              "internalType": "uint256",
              "name": "registrationDate",
              "type": "uint256"
            }
          ],
          "internalType": "struct CareTrack.Doctor",
          "name": "visitedDoctor",
          "type": "tuple"
        },
        {
          "internalType": "string",
          "name": "diagnosis",
          "type": "string"
        },
        {
          "internalType": "string",
          "name": "prescription",
          "type": "string"
        }
      ],
      "stateMutability": "view",
      "type": "function"
    }
  ],
  "bytecode": "0x6080604052348015600f57600080fd5b50336000806101000a81548173ffffffffffffffffffffffffffffffffffffffff021916908373ffffffffffffffffffffffffffffffffffffffff16021790555061251d8061005f6000396000f3fe608060405234801561001057600080fd5b506004361061009e5760003560e01c80638da5cb5b116100665780638da5cb5b14610172578063a0076e8414610190578063a9583c22146101c0578063b5368e20146101f2578063cc4cb816146102225761009e565b80630869cfbc146100a35780632f04e064146100d657806334b789981461010657806338d0cd9d1461012257806382a6c0ac1461013e575b600080fd5b6100bd60048036038101906100b8919061174a565b61023e565b6040516100cd9493929190611824565b60405180910390f35b6100f060048036038101906100eb919061174a565b610320565b6040516100fd919061192a565b60405180910390f35b610120600480360381019061011b9190611a81565b6104a7565b005b61013c60048036038101906101379190611b0c565b6105d8565b005b61015860048036038101906101539190611bd7565b610b35565b604051610169959493929190611c98565b60405180910390f35b61017a610ecc565b6040516101879190611d16565b60405180910390f35b6101aa60048036038101906101a5919061174a565b610ef0565b6040516101b79190611f38565b60405180910390f35b6101da60048036038101906101d5919061174a565b611304565b6040516101e993929190611f5a565b60405180910390f35b61020c6004803603810190610207919061174a565b61143e565b6040516102199190611f9f565b60405180910390f35b61023c60048036038101906102379190611fed565b611589565b005b60026020528060005260406000206000915090508060000180546102619061209f565b80601f016020809104026020016040519081016040528092919081815260200182805461028d9061209f565b80156102da5780601f106102af576101008083540402835291602001916102da565b820191906000526020600020905b8154815290600101906020018083116102bd57829003601f168201915b5050505050908060010160009054906101000a900461ffff16908060010160029054906101000a900461ffff16908060010160049054906101000a900461ffff16905084565b610328611683565b600160008373ffffffffffffffffffffffffffffffffffffffff1673ffffffffffffffffffffffffffffffffffffffff1681526020019081526020016000206040518060600160405290816000820180546103829061209f565b80601f01602080910402602001604051908101604052809291908181526020018280546103ae9061209f565b80156103fb5780601f106103d0576101008083540402835291602001916103fb565b820191906000526020600020905b8154815290600101906020018083116103de57829003601f168201915b505050505081526020016001820180546104149061209f565b80601f01602080910402602001604051908101604052809291908181526020018280546104409061209f565b801561048d5780601f106104625761010080835404028352916020019161048d565b820191906000526020600020905b81548152906001019060200180831161047057829003601f168201915b505050505081526020016002820154815250509050919050565b3373ffffffffffffffffffffffffffffffffffffffff1660008054906101000a900473ffffffffffffffffffffffffffffffffffffffff1673ffffffffffffffffffffffffffffffffffffffff16146104ff57600080fd5b6000604051806060016040528084815260200183815260200142815250905080600160008673ffffffffffffffffffffffffffffffffffffffff1673ffffffffffffffffffffffffffffffffffffffff1681526020019081526020016000206000820151816000019081610573919061227c565b506020820151816001019081610589919061227c565b50604082015181600201559050507fbc3a5b2aeb1bc52e3d56d3fd3423dd66cea5ecff8ae1f3bd0d75a0e608da7b858484846040516105ca9392919061234e565b60405180910390a150505050565b6000600160008673ffffffffffffffffffffffffffffffffffffffff1673ffffffffffffffffffffffffffffffffffffffff16815260200190815260200160002060000180546106279061209f565b905011610669576040517f08c379a000000000000000000000000000000000000000000000000000000000815260040161066090612405565b60405180910390fd5b60006040518060a00160405280600260008773ffffffffffffffffffffffffffffffffffffffff1673ffffffffffffffffffffffffffffffffffffffff1681526020019081526020016000206040518060800160405290816000820180546106d09061209f565b80601f01602080910402602001604051908101604052809291908181526020018280546106fc9061209f565b80156107495780601f1061071e57610100808354040283529160200191610749565b820191906000526020600020905b81548152906001019060200180831161072c57829003601f168201915b505050505081526020016001820160009054906101000a900461ffff1661ffff1661ffff1681526020016001820160029054906101000a900461ffff1661ffff1661ffff1681526020016001820160049054906101000a900461ffff1661ffff1661ffff16815250508152602001428152602001600160003373ffffffffffffffffffffffffffffffffffffffff1673ffffffffffffffffffffffffffffffffffffffff1681526020019081526020016000206040518060600160405290816000820180546108179061209f565b80601f01602080910402602001604051908101604052809291908181526020018280546108439061209f565b80156108905780601f1061086557610100808354040283529160200191610890565b820191906000526020600020905b81548152906001019060200180831161087357829003601f168201915b505050505081526020016001820180546108a99061209f565b80601f01602080910402602001604051908101604052809291908181526020018280546108d59061209f565b80156109225780601f106108f757610100808354040283529160200191610922565b820191906000526020600020905b81548152906001019060200180831161090557829003601f168201915b505050505081526020016002820154815250508152602001848152602001838152509050600360008573ffffffffffffffffffffffffffffffffffffffff1673ffffffffffffffffffffffffffffffffffffffff16815260200190815260200160002081908060018154018082558091505060019003906000526020600020906008020160009091909190915060008201518160000160008201518160000190816109cd919061227c565b5060208201518160010160006101000a81548161ffff021916908361ffff16021790555060408201518160010160026101000a81548161ffff021916908361ffff16021790555060608201518160010160046101000a81548161ffff021916908361ffff1602179055505050602082015181600201556040820151816003016000820151816000019081610a61919061227c565b506020820151816001019081610a77919061227c565b506040820151816002015550506060820151816006019081610a99919061227c565b506080820151816007019081610aaf919061227c565b5050507f4b92a41aaac1d087148ec39a65a261cc6ac88ed7765dece5374bb3893fcfcf9e84600160003373ffffffffffffffffffffffffffffffffffffffff1673ffffffffffffffffffffffffffffffffffffffff16815260200190815260200160002060000142604051610b26939291906124a9565b60405180910390a15050505050565b60036020528160005260406000208181548110610b5157600080fd5b90600052602060002090600802016000915091505080600001604051806080016040529081600082018054610b859061209f565b80601f0160208091040260200160405190810160405280929190818152602001828054610bb19061209f565b8015610bfe5780601f10610bd357610100808354040283529160200191610bfe565b820191906000526020600020905b815481529060010190602001808311610be157829003601f168201915b505050505081526020016001820160009054906101000a900461ffff1661ffff1661ffff1681526020016001820160029054906101000a900461ffff1661ffff1661ffff1681526020016001820160049054906101000a900461ffff1661ffff1661ffff16815250509080600201549080600301604051806060016040529081600082018054610c8d9061209f565b80601f0160208091040260200160405190810160405280929190818152602001828054610cb99061209f565b8015610d065780601f10610cdb57610100808354040283529160200191610d06565b820191906000526020600020905b815481529060010190602001808311610ce957829003601f168201915b50505050508152602001600182018054610d1f9061209f565b80601f0160208091040260200160405190810160405280929190818152602001828054610d4b9061209f565b8015610d985780601f10610d6d57610100808354040283529160200191610d98565b820191906000526020600020905b815481529060010190602001808311610d7b57829003601f168201915b5050505050815260200160028201548152505090806006018054610dbb9061209f565b80601f0160208091040260200160405190810160405280929190818152602001828054610de79061209f565b8015610e345780601f10610e0957610100808354040283529160200191610e34565b820191906000526020600020905b815481529060010190602001808311610e1757829003601f168201915b505050505090806007018054610e499061209f565b80601f0160208091040260200160405190810160405280929190818152602001828054610e759061209f565b8015610ec25780601f10610e9757610100808354040283529160200191610ec2565b820191906000526020600020905b815481529060010190602001808311610ea557829003601f168201915b5050505050905085565b60008054906101000a900473ffffffffffffffffffffffffffffffffffffffff1681565b6060600360008373ffffffffffffffffffffffffffffffffffffffff1673ffffffffffffffffffffffffffffffffffffffff168152602001908152602001600020805480602002602001604051908101604052809291908181526020016000905b828210156112f957838290600052602060002090600802016040518060a001604052908160008201604051806080016040529081600082018054610f949061209f565b80601f0160208091040260200160405190810160405280929190818152602001828054610fc09061209f565b801561100d5780601f10610fe25761010080835404028352916020019161100d565b820191906000526020600020905b815481529060010190602001808311610ff057829003601f168201915b505050505081526020016001820160009054906101000a900461ffff1661ffff1661ffff1681526020016001820160029054906101000a900461ffff1661ffff1661ffff1681526020016001820160049054906101000a900461ffff1661ffff1661ffff1681525050815260200160028201548152602001600382016040518060600160405290816000820180546110a49061209f565b80601f01602080910402602001604051908101604052809291908181526020018280546110d09061209f565b801561111d5780601f106110f25761010080835404028352916020019161111d565b820191906000526020600020905b81548152906001019060200180831161110057829003601f168201915b505050505081526020016001820180546111369061209f565b80601f01602080910402602001604051908101604052809291908181526020018280546111629061209f565b80156111af5780601f10611184576101008083540402835291602001916111af565b820191906000526020600020905b81548152906001019060200180831161119257829003601f168201915b5050505050815260200160028201548152505081526020016006820180546111d69061209f565b80601f01602080910402602001604051908101604052809291908181526020018280546112029061209f565b801561124f5780601f106112245761010080835404028352916020019161124f565b820191906000526020600020905b81548152906001019060200180831161123257829003601f168201915b505050505081526020016007820180546112689061209f565b80601f01602080910402602001604051908101604052809291908181526020018280546112949061209f565b80156112e15780601f106112b6576101008083540402835291602001916112e1565b820191906000526020600020905b8154815290600101906020018083116112c457829003601f168201915b50505050508152505081526020019060010190610f51565b505050509050919050565b60016020528060005260406000206000915090508060000180546113279061209f565b80601f01602080910402602001604051908101604052809291908181526020018280546113539061209f565b80156113a05780601f10611375576101008083540402835291602001916113a0565b820191906000526020600020905b81548152906001019060200180831161138357829003601f168201915b5050505050908060010180546113b59061209f565b80601f01602080910402602001604051908101604052809291908181526020018280546113e19061209f565b801561142e5780601f106114035761010080835404028352916020019161142e565b820191906000526020600020905b81548152906001019060200180831161141157829003601f168201915b5050505050908060020154905083565b6114466116a4565b600260008373ffffffffffffffffffffffffffffffffffffffff1673ffffffffffffffffffffffffffffffffffffffff1681526020019081526020016000206040518060800160405290816000820180546114a09061209f565b80601f01602080910402602001604051908101604052809291908181526020018280546114cc9061209f565b80156115195780601f106114ee57610100808354040283529160200191611519565b820191906000526020600020905b8154815290600101906020018083116114fc57829003601f168201915b505050505081526020016001820160009054906101000a900461ffff1661ffff1661ffff1681526020016001820160029054906101000a900461ffff1661ffff1661ffff1681526020016001820160049054906101000a900461ffff1661ffff1661ffff16815250509050919050565b600060405180608001604052808681526020018561ffff1681526020018461ffff1681526020018361ffff16815250905080600260003373ffffffffffffffffffffffffffffffffffffffff1673ffffffffffffffffffffffffffffffffffffffff168152602001908152602001600020600082015181600001908161160f919061227c565b5060208201518160010160006101000a81548161ffff021916908361ffff16021790555060408201518160010160026101000a81548161ffff021916908361ffff16021790555060608201518160010160046101000a81548161ffff021916908361ffff1602179055509050505050505050565b60405180606001604052806060815260200160608152602001600081525090565b604051806080016040528060608152602001600061ffff168152602001600061ffff168152602001600061ffff1681525090565b6000604051905090565b600080fd5b600080fd5b600073ffffffffffffffffffffffffffffffffffffffff82169050919050565b6000611717826116ec565b9050919050565b6117278161170c565b811461173257600080fd5b50565b6000813590506117448161171e565b92915050565b6000602082840312156117605761175f6116e2565b5b600061176e84828501611735565b91505092915050565b600081519050919050565b600082825260208201905092915050565b60005b838110156117b1578082015181840152602081019050611796565b60008484015250505050565b6000601f19601f8301169050919050565b60006117d982611777565b6117e38185611782565b93506117f3818560208601611793565b6117fc816117bd565b840191505092915050565b600061ffff82169050919050565b61181e81611807565b82525050565b6000608082019050818103600083015261183e81876117ce565b905061184d6020830186611815565b61185a6040830185611815565b6118676060830184611815565b95945050505050565b600082825260208201905092915050565b600061188c82611777565b6118968185611870565b93506118a6818560208601611793565b6118af816117bd565b840191505092915050565b6000819050919050565b6118cd816118ba565b82525050565b600060608301600083015184820360008601526118f08282611881565b9150506020830151848203602086015261190a8282611881565b915050604083015161191f60408601826118c4565b508091505092915050565b6000602082019050818103600083015261194481846118d3565b905092915050565b600080fd5b600080fd5b7f4e487b7100000000000000000000000000000000000000000000000000000000600052604160045260246000fd5b61198e826117bd565b810181811067ffffffffffffffff821117156119ad576119ac611956565b5b80604052505050565b60006119c06116d8565b90506119cc8282611985565b919050565b600067ffffffffffffffff8211156119ec576119eb611956565b5b6119f5826117bd565b9050602081019050919050565b82818337600083830152505050565b6000611a24611a1f846119d1565b6119b6565b905082815260208101848484011115611a4057611a3f611951565b5b611a4b848285611a02565b509392505050565b600082601f830112611a6857611a6761194c565b5b8135611a78848260208601611a11565b91505092915050565b600080600060608486031215611a9a57611a996116e2565b5b6000611aa886828701611735565b935050602084013567ffffffffffffffff811115611ac957611ac86116e7565b5b611ad586828701611a53565b925050604084013567ffffffffffffffff811115611af657611af56116e7565b5b611b0286828701611a53565b9150509250925092565b60008060008060808587031215611b2657611b256116e2565b5b6000611b3487828801611735565b9450506020611b4587828801611735565b935050604085013567ffffffffffffffff811115611b6657611b656116e7565b5b611b7287828801611a53565b925050606085013567ffffffffffffffff811115611b9357611b926116e7565b5b611b9f87828801611a53565b91505092959194509250565b611bb4816118ba565b8114611bbf57600080fd5b50565b600081359050611bd181611bab565b92915050565b60008060408385031215611bee57611bed6116e2565b5b6000611bfc85828601611735565b9250506020611c0d85828601611bc2565b9150509250929050565b611c2081611807565b82525050565b60006080830160008301518482036000860152611c438282611881565b9150506020830151611c586020860182611c17565b506040830151611c6b6040860182611c17565b506060830151611c7e6060860182611c17565b508091505092915050565b611c92816118ba565b82525050565b600060a0820190508181036000830152611cb28188611c26565b9050611cc16020830187611c89565b8181036040830152611cd381866118d3565b90508181036060830152611ce781856117ce565b90508181036080830152611cfb81846117ce565b90509695505050505050565b611d108161170c565b82525050565b6000602082019050611d2b6000830184611d07565b92915050565b600081519050919050565b600082825260208201905092915050565b6000819050602082019050919050565b60006080830160008301518482036000860152611d7a8282611881565b9150506020830151611d8f6020860182611c17565b506040830151611da26040860182611c17565b506060830151611db56060860182611c17565b508091505092915050565b60006060830160008301518482036000860152611ddd8282611881565b91505060208301518482036020860152611df78282611881565b9150506040830151611e0c60408601826118c4565b508091505092915050565b600060a0830160008301518482036000860152611e348282611d5d565b9150506020830151611e4960208601826118c4565b5060408301518482036040860152611e618282611dc0565b91505060608301518482036060860152611e7b8282611881565b91505060808301518482036080860152611e958282611881565b9150508091505092915050565b6000611eae8383611e17565b905092915050565b6000602082019050919050565b6000611ece82611d31565b611ed88185611d3c565b935083602082028501611eea85611d4d565b8060005b85811015611f265784840389528151611f078582611ea2565b9450611f1283611eb6565b925060208a01995050600181019050611eee565b50829750879550505050505092915050565b60006020820190508181036000830152611f528184611ec3565b905092915050565b60006060820190508181036000830152611f7481866117ce565b90508181036020830152611f8881856117ce565b9050611f976040830184611c89565b949350505050565b60006020820190508181036000830152611fb98184611c26565b905092915050565b611fca81611807565b8114611fd557600080fd5b50565b600081359050611fe781611fc1565b92915050565b60008060008060808587031215612007576120066116e2565b5b600085013567ffffffffffffffff811115612025576120246116e7565b5b61203187828801611a53565b945050602061204287828801611fd8565b935050604061205387828801611fd8565b925050606061206487828801611fd8565b91505092959194509250565b7f4e487b7100000000000000000000000000000000000000000000000000000000600052602260045260246000fd5b600060028204905060018216806120b757607f821691505b6020821081036120ca576120c9612070565b5b50919050565b60008190508160005260206000209050919050565b60006020601f8301049050919050565b600082821b905092915050565b6000600883026121327fffffffffffffffffffffffffffffffffffffffffffffffffffffffffffffffff826120f5565b61213c86836120f5565b95508019841693508086168417925050509392505050565b6000819050919050565b600061217961217461216f846118ba565b612154565b6118ba565b9050919050565b6000819050919050565b6121938361215e565b6121a761219f82612180565b848454612102565b825550505050565b600090565b6121bc6121af565b6121c781848461218a565b505050565b5b818110156121eb576121e06000826121b4565b6001810190506121cd565b5050565b601f82111561223057612201816120d0565b61220a846120e5565b81016020851015612219578190505b61222d612225856120e5565b8301826121cc565b50505b505050565b600082821c905092915050565b600061225360001984600802612235565b1980831691505092915050565b600061226c8383612242565b9150826002028217905092915050565b61228582611777565b67ffffffffffffffff81111561229e5761229d611956565b5b6122a8825461209f565b6122b38282856121ef565b600060209050601f8311600181146122e657600084156122d4578287015190505b6122de8582612260565b865550612346565b601f1984166122f4866120d0565b60005b8281101561231c578489015182556001820191506020850194506020810190506122f7565b868310156123395784890151612335601f891682612242565b8355505b6001600288020188555050505b505050505050565b60006060820190506123636000830186611d07565b818103602083015261237581856117ce565b9050818103604083015261238981846117ce565b9050949350505050565b7f4f6e6c79207265676973746572656420646f63746f722063616e20706572666f60008201527f726d207468697320616374696f6e000000000000000000000000000000000000602082015250565b60006123ef602e83611782565b91506123fa82612393565b604082019050919050565b6000602082019050818103600083015261241e816123e2565b9050919050565b600081546124328161209f565b61243c8186611782565b94506001821660008114612457576001811461246d576124a0565b60ff1983168652811515602002860193506124a0565b612476856120d0565b60005b8381101561249857815481890152600182019150602081019050612479565b808801955050505b50505092915050565b60006060820190506124be6000830186611d07565b81810360208301526124d08185612425565b90506124df6040830184611c89565b94935050505056fea2646970667358221220643e280e96d4be02827933c03cfd905b9c21c5a059d3acc4655c0acc24d5c41064736f6c634300081c0033",
  "linkReferences": {},
  "deployedLinkReferences": {}
}